:020000040800F2
:1000000000500020192900080127000807270008D0
:100010000D2700081327000819270008000000001A
:100020000000000000000000000000001F27000882
:100030002B2700080000000037270008432700088E
:100040006129000861290008612900086129000868
:100050006129000861290008612900086129000858
:100060006129000861290008612900086129000848
:100070006129000861290008612900086129000838
:100080006129000861290008612900086129000828
:100090006129000861290008612900086129000818
:1000A0006129000861290008612900086129000808
:1000B0005127000861290008612900086527000808
:1000C00079270008612900086129000861290008D2
:1000D00061290008612900086129000861290008D8
:1000E000612900086129000861290008000000005A
:1000F0000000000000000000000000000000000000
:0C01000000000000000000005FF808F1A3
:10010C0010B5054C237833B9044B13B10448AFF345
:10011C0000800123237010BDC000002000000000EF
:10012C00D46E000808B5034B1BB103490348AFF369
:10013C00008008BD00000000C4000020D46E000840
:10014C004FF0FF0C1CEAD0521EBF1CEAD15392EAAE
:10015C000C0F93EA0C0F6FD01A4480EA010C40028A
:10016C0018BF5FEA41211ED04FF0006343EA5010E4
:10017C0043EA5111A0FB01310CF00040B1F5000F26
:10018C003EBF490041EAD3715B0040EA010062F1D5
:10019C007F02FD2A1DD8B3F1004F40EBC25008BFBF
:1001AC0020F00100704790F0000F0CF0004C08BFDD
:1001BC0049024CEA502040EA51207F3AC2BFD2F1AA
:1001CC00FF0340EAC250704740F400004FF00003B8
:1001DC00013A5DDC12F1190FDCBF00F000407047F2
:1001EC00C2F10002410021FA02F1C2F1200200FA30
:1001FC0002FC5FEA310040F1000053EA4C0308BFF7
:10020C0020EADC70704792F0000F00F0004C02BF47
:10021C00400010F4000F013AF9D040EA0C0093F0C2
:10022C00000F01F0004C02BF490011F4000F013B1C
:10023C00F9D041EA0C018FE70CEAD15392EA0C0F8A
:10024C0018BF93EA0C0F0AD030F0004C18BF31F0F5
:10025C00004CD8D180EA010000F00040704790F0CB
:10026C00000F17BF90F0004F084691F0000F91F06F
:10027C00004F14D092EA0C0F01D142020FD193EA35
:10028C000C0F03D14B0218BF084608D180EA0100BD
:10029C0000F0004040F0FE4040F40000704740F099
:1002AC00FE4040F44000704780F0004002E000BF88
:1002BC0081F0004142001FBF5FEA410392EA030F45
:1002CC007FEA226C7FEA236C6AD04FEA1262D2EB8F
:1002DC001363C1BFD218414048404140B8BF5B4294
:1002EC00192B88BF704710F0004F40F4000020F02D
:1002FC007F4018BF404211F0004F41F4000121F043
:10030C007F4118BF494292EA030F3FD0A2F101028C
:10031C0041FA03FC10EB0C00C3F1200301FA03F1CA
:10032C0000F0004302D5494260EB4000B0F5000FED
:10033C0013D3B0F1807F06D340084FEA310102F1AC
:10034C000102FE2A51D2B1F1004F40EBC25008BF5E
:10035C0020F0010040EA03007047490040EB000028
:10036C00013A28BFB0F5000FEDD2B0FA80FCACF129
:10037C00080CB2EB0C0200FA0CF0AABF00EBC25056
:10038C0052421843BCBFD0401843704792F0000F44
:10039C0081F4000106BF80F400000132013BB5E797
:1003AC004FEA41037FEA226C18BF7FEA236C21D00D
:1003BC0092EA030F04D092F0000F08BF0846704772
:1003CC0090EA010F1CBF0020704712F07F4F04D140
:1003DC00400028BF40F00040704712F100723CBF53
:1003EC0000F50000704700F0004343F0FE4040F47D
:1003FC00000070477FEA226216BF08467FEA23633B
:10040C000146420206BF5FEA412390EA010F40F425
:10041C00800070474FF0000304E000BF10F0004371
:10042C0048BF40425FEA000C08BF704743F0964358
:10043C0001464FF000001CE050EA010208BF704773
:10044C004FF000030AE000BF50EA010208BF7047FA
:10045C0011F0004302D5404261EB41015FEA010C0F
:10046C0002BF84460146002043F0B64308BFA3F107
:10047C008053A3F50003BCFA8CF2083AA3EBC253E9
:10048C0010DB01FA02FC634400FA02FCC2F1200208
:10049C00BCF1004F20FA02F243EB020008BF20F03F
:1004AC000100704702F1200201FA02FCC2F12002A5
:1004BC0050EA4C0021FA02F243EB020008BF20EA9A
:1004CC00DC7070474FF0FF3C06E000BF4FF0010CB2
:1004DC0002E000BF4FF0010C4DF804CD4FEA400292
:1004EC004FEA41037FEA226C18BF7FEA236C11D0DC
:1004FC0001B052EA530C18BF90EA010F58BFB2EB8F
:10050C00030088BFC81738BF6FEAE17018BF40F00E
:10051C00010070477FEA226C02D15FEA402C05D1C2
:10052C007FEA236CE4D15FEA412CE1D05DF8040B47
:10053C00704700BF844608466146FFE70FB5FFF7DA
:10054C00C9FF002848BF10F1000F0FBD4DF808ED92
:10055C00FFF7F4FF0CBF012000205DF808FB00BF83
:10056C004DF808EDFFF7EAFF34BF012000205DF8DD
:10057C0008FB00BF4DF808EDFFF7E0FF94BF01202A
:10058C0000205DF808FB00BF4DF808EDFFF7D2FF27
:10059C0094BF012000205DF808FB00BF4DF808ED6A
:1005AC00FFF7C8FF34BF012000205DF808FB00BF37
:1005BC0042000ED2B2F1FE4F0BD34FF09E03B3EBC1
:1005CC00126209D44FEA002343F0004323FA02F0ED
:1005DC0070474FF00000704712F1610F01D14202D9
:1005EC0002D14FF0FF3070474FF00000704700BF52
:1005FC0080B584B000AF3B4600221A605A609A6006
:10060C00DA600A4B9B883B6001237B600123BB6053
:10061C000223FB60054B1B683A461146184602F054
:10062C00B1FB00BF1037BD4680BD00BFDC00002011
:10063C0080B582B000AF0346FB71064B1B68054AC0
:10064C009188FA79184602F038FD00BF0837BD468C
:10065C0080BD00BFDC00002080B584B000AFF86026
:10066C000B467A607B810D4AFB6813600B4A7B89D1
:10067C0093800A4A7B689360084B4FF00002DA6063
:10068C00064BDB68054A1361FFF7B2FF0020FFF74A
:10069C00CFFF00BF1037BD4680BD00BFDC0000207F
:1006AC0080B483B000AF0C37BD4680BC70470000EF
:1006BC0080B400AF024B1846BD4680BC704700BFEB
:1006CC006666F24180B400AF024B1846BD4680BC52
:1006DC00704700BF00004A4280B485B000AF0346AB
:1006EC00FB71FB7903F00F03FB73FB791B09DBB286
:1006FC001A46920013445B00BB73FA7BBB7B13441A
:10070C00DBB218461437BD4680BC704780B483B04A
:10071C0000AF7860034A7B68136000BF0C37BD469E
:10072C0080BC7047F000002080B586B002AF034655
:10073C000A46FB711346BB71FB793B73BB797B7328
:10074C00074B186807F10C024FF47A7300930223DD
:10075C00D02102F00FFE00BF1037BD4680BD00BF98
:10076C00F000002080B586B002AF0346FB71002379
:10077C00FB730F4B1868FA1D4FF47A730093012327
:10078C00D02102F0F7FD0A4B186807F10F024FF465
:10079C007A7300930123D02102F0EAFEFB7B18460A
:1007AC00FFF79AFF034618461037BD4680BD00BFC1
:1007BC00F000002080B500AF2520FFF7D3FF0346E3
:1007CC00012B2CD001210220FFF7AEFF01210120CB
:1007DC00FFF7AAFF01210020FFF7A6FF012103204C
:1007EC00FFF7A2FF01210420FFF79EFF0121052046
:1007FC00FFF79AFF01210620FFF796FF0121262023
:10080C00FFF792FF01212720FFF78EFF0021282000
:10081C00FFF78AFF01212520FFF786FF00E000BFCC
:10082C0080BD000080B500AF0220FFF79BFF0346A0
:10083C001A46214B1A700120FFF794FF03461A4603
:10084C001D4B5A700020FFF78DFF03461A461A4BBA
:10085C009A700320FFF786FF03461A46164B9A71CF
:10086C000420FFF77FFF03461A46134B5A710520ED
:10087C00FFF778FF03461A460F4B1A710620FFF755
:10088C0071FF03461A460C4BDA702620FFF76AFFFD
:10089C0003461A46084BDA712720FFF763FF03461D
:1008AC001A46054B1A722820FFF75CFF03461A46BE
:1008BC00014B5A7200BF80BDF800002080B483B099
:1008CC0000AF0346FB71FB79013B062B1ED801A23E
:1008DC0052F823F0FD08000801090008050900087A
:1008EC00090900080D09000811090008150900087C
:1008FC00094B0CE0094B0AE0094B08E0094B06E0F8
:10090C00094B04E0094B02E0094B00E0094B184687
:10091C000C37BD4680BC7047EC6E0008F06E0008CA
:10092C00F46E0008F86E0008FC6E0008006F0008FA
:10093C00046F0008086F000880B400AF044B00225D
:10094C001A70044B32221A8000BFBD4680BC70471F
:10095C00F40000200E01002080B500AFC14B1B78C5
:10096C000C2B00F2638601A252F823F0AD090008AB
:10097C00F9090008390B000839160008A90C000801
:10098C00B90D0008D50E00085B100008A91100086D
:10099C001B13000861140008F5140008A3150008C7
:1009AC00B14A0021002001F099F8B04A0021012041
:1009BC0001F094F8FFF7FEFEAD4B1B88042B00F200
:1009CC001E86AB4B4FF47A721A80AA4A0021002083
:1009DC0001F084F8A74A0021012001F07FF8FFF70D
:1009EC0021FFA04B01221A7000F009BEA24B1A780D
:1009FC00A24BA3FB021359090B469B000B44DB00D3
:100A0C00D31ADBB2132B0AD82E220621002001F0B8
:100A1C0029F82E220621012001F024F809E02022D9
:100A2C000621002001F01EF820220621012001F0F1
:100A3C0019F8914B1A78914BA3FB0213D9080B466A
:100A4C009B000B445B00D31ADBB2002B01D1FFF7E8
:100A5C00E9FE8B4B1B785BB21946002001F04EFB74
:100A6C00874B5B785BB21946072001F047FB844B40
:100A7C009B781BB21A460E21012001F065F840F25A
:100A8C00DC51012000F05AFE0346002B08D07D4BB0
:100A9C004FF47A721A80734B04221A7000F0B1BDB5
:100AAC0040F2DC51022000F049FE0346002B1AD024
:100ABC0040F2DC51002000F041FE0346002B12D026
:100ACC00704B4FF47A721A806F4A0021002001F0AB
:100ADC0005F86E4A0021012001F000F8614B0A2252
:100AEC001A7000F08EBD624B1B88042B06D90120B6
:100AFC0000F010FE0346002B00F083855C4B4FF496
:100B0C00FA721A80624A0021002000F0E7FF614A65
:100B1C000021012000F0E2FFDF220621012000F07D
:100B2C00A1FF504B02221A7000F06BBD544B9B7905
:100B3C001846FFF7C3FE03461A460121002000F0B9
:100B4C00CDFF4F4B5B791BB21A460521002000F0FC
:100B5C00FBFF4B4B1B791BB21A460821002000F0FF
:100B6C00F3FF474BDB789BB203F5FA639BB21BB2E6
:100B7C001A460B21002000F0E7FF414BDB681A46B8
:100B8C000221012001F054F83D4B1B691A460A2141
:100B9C00012001F04DF8404B1B88042B0FD83E4B25
:100BAC004FF47A721A80FFF77BFDFFF781FD034645
:100BBC00334AD360FFF786FD0346314A136140F296
:100BCC00DC51012000F0BAFD0346002B08D02D4B60
:100BDC004FF47A721A80234B06221A7000F013BD60
:100BEC0040F2DC51022000F0A9FD0346002B1AD084
:100BFC0040F2DC51002000F0A1FD0346002B12D086
:100C0C00204B4FF47A721A801F4A0021002000F00A
:100C1C0065FF1E4A0021012000F060FF114B0A22E3
:100C2C001A7000F0F0BC124B1B88042B06D9012063
:100C3C0000F070FD0346002B00F0E5840C4B4FF4E4
:100C4C007A721A800B4A0021002000F047FF094AF3
:100C5C000021012000F042FF024B01221A7000F02B
:100C6C00D2BC00BFF40000200C6F0008206F0008FD
:100C7C000E010020346F00080C010020CDCCCCCC30
:100C8C00F800002012010020486F00085C6F00087B
:100C9C00706F0008846F000810010020B04B1A78A8
:100CAC00B04BA3FB021319090B469B000B449B0092
:100CBC00D31ADBB2092B07D8AB4B1B785BB21946A6
:100CCC00002001F01BFA03E06421002001F016FA69
:100CDC00002000F00FFD034603F007039BB2012B2D
:100CEC0017D1A24B4FF47A721A809F4B1B78162B9C
:100CFC0004D89D4B1B780133DBB200E000239A4AE9
:100D0C001370994B1B785BB21946002001F0F6F971
:100D1C0018E0022000F0EEFC034603F007039BB240
:100D2C00012B0FD1914B4FF47A721A808E4B1B789A
:100D3C00002B04D08C4B1B78013BDBB200E017235B
:100D4C00894A1370012000F0E5FC0346002B15D0F6
:100D5C00864B4FF47A721A80834B1B78194602200B
:100D6C00FFF7E2FC804B1B785BB21946002001F0C8
:100D7C00C5F97F4B05221A7000F047BC7B4B1B88D2
:100D8C00042B00F242847B4B4FF47A721A807A4A1D
:100D9C000021002000F0A2FE774A0021012000F083
:100DAC009DFE734B01221A7000F02FBC6C4B1A780D
:100DBC006C4BA3FB021319090B469B000B449B00C5
:100DCC00D31ADBB2092B07D8674B5B785BB2194699
:100DDC00072001F093F903E06421072001F08EF95C
:100DEC00002000F087FC03461A465E4BA3FB02135F
:100DFC00D9080B469B000B445B00D31A9BB2012B0A
:100E0C0017D15A4B4FF47A721A80574B5B783A2BA6
:100E1C0004D8554B5B780133DBB200E00023524A17
:100E2C005370514B5B785BB21946072001F066F9A1
:100E3C0027E0022000F05EFC03461A46494BA3FB58
:100E4C000213D9080B469B000B445B00D31A9BB2D0
:100E5C00012B16D1454B4FF47A721A80424B5B78BA
:100E6C00002B04D0404B5B78013BDBB200E03B2312
:100E7C003D4A53703C4B5B785BB21946072001F03E
:100E8C003DF93A4B1B88042B06D9012000F042FC9B
:100E9C000346002B00F0BB83364B4FF47A721A805A
:100EAC00314B5B7819460120FFF73EFC324A00219A
:100EBC00002000F013FE304A0021012000F00EFE4D
:100ECC002B4B01221A70A2E3254B1A78254BA3FB5E
:100EDC00021319090B469B000B449B00D31ADBB27F
:100EEC00092B0BD8204B9B791846FFF7E7FC0346E0
:100EFC001A460121002000F0F1FD04E01F4A0121F7
:100F0C00002000F0EBFD002000F0F4FB03461A4635
:100F1C00144BA3FB0213D9080B469B000B445B003C
:100F2C00D31A9BB2012B2BD1104B4FF47A721A802F
:100F3C000D4B9B79062B04D80B4B9B790133DBB201
:100F4C0000E00123084A9371074B9B791846FFF781
:100F5C00B5FC03461A460121002000F0BFFD3BE022
:100F6C000C010020CDCCCCCCF800002012010020CC
:100F7C00F40000200E010020346F0008986F000868
:100F8C00022000F0B7FB03461A46A74BA3FB021343
:100F9C00D9080B469B000B445B00D31A9BB2012B68
:100FAC001AD1A24B4FF47A721A80A14B9B79012B68
:100FBC0004D99F4B9B79013BDBB200E007239C4A91
:100FCC0093719B4B9B791846FFF778FC03461A46A6
:100FDC000121002000F082FD012000F09BFB034664
:100FEC00002B18D0914B4FF47A721A80904B9B794E
:100FFC0019460320FFF798FB8D4B9B791846FFF79A
:10100C005DFC03461A460121002000F067FD894B68
:10101C0007221A70FDE2854B1B88042B00F2F98223
:10102C00854B4FF4FA721A80844A0021002000F09C
:10103C0055FD834A0021012000F050FDDF220621DE
:10104C00012000F00FFD7B4B02221A70E1E27D4B78
:10105C001A78754BA3FB021319090B469B000B4422
:10106C009B00D31ADBB2092B08D8714B5B791BB2EE
:10107C001A460521002000F067FD04E0724A0521A4
:10108C00002000F02BFD002000F034FB03461A4634
:10109C00654BA3FB0213D9080B469B000B445B006A
:1010AC00D31A9BB2012B18D1604B4FF47A721A8071
:1010BC005F4B5B791E2B04D85D4B5B790133DBB244
:1010CC0000E001235A4A5371594B5B791BB21A4603
:1010DC000521002000F038FD28E0022000F00AFB7A
:1010EC0003461A46504BA3FB0213D9080B469B0030
:1010FC000B445B00D31A9BB2012B17D14B4B4FF413
:10110C007A721A804A4B5B79012B04D9484B5B7974
:10111C00013BDBB200E01F23454A5371444B5B7922
:10112C001BB21A460521002000F00EFD012000F034
:10113C00F1FA0346002B15D03C4B4FF47A721A800F
:10114C003B4B5B7919460420FFF7EEFA384B5B7981
:10115C001BB21A460521002000F0F6FC354B082284
:10116C001A7058E2314B1B88042B00F25482324B1C
:10117C004FF4FA721A80314A0021002000F0AEFCC4
:10118C002F4A0021012000F0A9FCDF2206210120BA
:10119C0000F068FC274B02221A703CE2294B1A78AB
:1011AC00214BA3FB021319090B469B000B449B001C
:1011BC00D31ADBB2092B08D81D4B1B791BB21A466C
:1011CC000821002000F0C0FC04E01F4A0821002088
:1011DC0000F084FC002000F08DFA03461A46124BF6
:1011EC00A3FB0213D9080B469B000B445B00D31ADC
:1011FC009BB2012B2AD10D4B4FF47A721A800C4BF7
:10120C001B790B2B04D80A4B1B790133DBB200E0A2
:10121C000123074A1371064B1B791BB21A4608218E
:10122C00002000F091FC3AE0CDCCCCCC1201002097
:10123C00F8000020F40000200E010020706F000860
:10124C00846F00080C0100209C6F0008022000F045
:10125C0051FA03461A46B04BA3FB0213D9080B46AE
:10126C009B000B445B00D31A9BB2012B17D1AB4BE9
:10127C004FF47A721A80AA4B1B79012B04D9A84B14
:10128C001B79013BDBB200E00C23A54A1371A44B84
:10129C001B791BB21A460821002000F055FC0120D6
:1012AC0000F038FA0346002B15D09C4B4FF47A72A1
:1012BC001A809B4B1B7919460520FFF735FA984B82
:1012CC001B791BB21A460821002000F03DFC954BFF
:1012DC0009221A70A1E1914B1B88042B00F29D810D
:1012EC00914B4FF4FA721A80904A0021002000F0C2
:1012FC00F5FB8F4A0021012000F0F0FBDF220621D4
:10130C00012000F0AFFB874B02221A7085E1894B5C
:10131C001A78814BA3FB021319090B469B000B4453
:10132C009B00D31ADBB2092B0CD87D4BDB789BB21C
:10133C0003F5FA639BB21BB21A460B21002000F096
:10134C0003FC04E07C4A0B21002000F0C7FB0020CA
:10135C0000F0D0F903461A466F4BA3FB0213D908D1
:10136C000B469B000B445B00D31A9BB2012B1CD188
:10137C006A4B4FF47A721A80694BDB78622B04D873
:10138C00674BDB780133DBB200E00023644AD37097
:10139C00634BDB789BB203F5FA639BB21BB21A4624
:1013AC000B21002000F0D0FB2CE0022000F0A2F971
:1013BC0003461A46584BA3FB0213D9080B469B0055
:1013CC000B445B00D31A9BB2012B1BD1534B4FF434
:1013DC007A721A80524BDB78002B04D0504BDB789E
:1013EC00013BDBB200E063234D4AD3704C4BDB78FE
:1013FC009BB203F5FA639BB21BB21A460B21002079
:10140C0000F0A2FB012000F085F90346002B04D16B
:10141C00424B1B88042B00F20281434B4FF4FA72AF
:10142C001A803F4BDB7819460620FFF77DF93F4ABF
:10143C000021002000F052FB3D4A0021012000F069
:10144C004DFBDF220621012000F00CFB354B022264
:10145C001A70E4E0012000F05DF90346002B24D063
:10146C002F4B01225A7201212820FFF75DF9334AD4
:10147C000021002000F032FB314A0021012000F055
:10148C002DFB274BDB791BB21A460321012000F000
:10149C005BFB234B1B7A1BB21A460B21012000F07D
:1014AC0053FB204B0B221A70BBE0022000F032F9E8
:1014BC000346002B0AD1002000F02CF90346002B28
:1014CC0004D1164B1B88042B00F2AB80164B322236
:1014DC001A80134B00225A7200212820FFF724F99E
:1014EC00104B00221A709CE0124B1A780A4BA3FB8B
:1014FC00021319090B469B000B449B00D31ADBB259
:10150C00092B1FD8064BDB791BB21A46032101208D
:10151C0000F01AFB1BE000BFCDCCCCCC120100209C
:10152C00F8000020F40000200E010020706F00086D
:10153C00846F00080C010020A06F0008A86F000841
:10154C00BC6F00083A4A0321012000F0C7FA0120C1
:10155C0000F0E0F80346002B15D0364B4FF47A72AE
:10156C001A80354BDB7919462620FFF7DDF8324B14
:10157C00DB791BB21A460321012000F0E5FA2F4B50
:10158C000C221A704FE02B4B1B88042B4BD82B4B87
:10159C0000221A7047E02A4B1A782A4BA3FB02133D
:1015AC0019090B469B000B449B00D31ADBB2092B89
:1015BC0008D8214B1B7A1BB21A460B21012000F0D4
:1015CC00C3FA04E01A4A0B21012000F087FA01202B
:1015DC0000F0A0F80346002B09D0174B1B7A1946D4
:1015EC000120FFF7A1F8154B00221A701DE0114BDA
:1015FC001B88042B19D8114B00221A7015E000BF60
:10160C0014E000BF12E000BF10E000BF0EE000BF0E
:10161C000CE000BF0AE000BF08E000BF06E000BF1E
:10162C0004E000BF02E000BF00E000BF00BF80BDCF
:10163C009C6F000812010020F8000020F40000202C
:10164C000C010020CDCCCCCC80B400AF00BFBD468B
:10165C0080BC704780B582B000AF0023FB7139E0CD
:10166C00FB79204A52F82320FB791F4931F81330BB
:10167C001946104601F00AFD0346002B0FD1FB79E9
:10168C001A4A32F81330C72B21D8FB79174A32F893
:10169C001320013291B2154A22F8131017E0FB798E
:1016AC00124A32F81330002B07D0FB790F4A32F86C
:1016BC001330092B01D8012200E00022FB79D1B2B2
:1016CC000B4AD154FB79094A002122F81310FB79FB
:1016DC000133FB71FB79022BC2D900BF00BF083765
:1016EC00BD4680BD000000200C0000201801002029
:1016FC001401002080B483B000AF0346FB71FB796A
:10170C00034A32F8133018460C37BD4680BC70477C
:10171C001801002080B483B000AF0346FB71FB7945
:10172C00022B01D9002302E0FB79034AD35C184653
:10173C000C37BD4680BC70471401002080B483B0C8
:10174C0000AF03460A46FB711346BB80FB79022BA4
:10175C0001D900230EE0FB79094A32F81320BB882B
:10176C000849A1FB03131B099BB29A422CBF01230E
:10177C000023DBB218460C37BD4680BC704700BF57
:10178C00180100201F85EB5180B582B000AF0346D5
:10179C00FB80FB88184601F041F900BF0837BD46B5
:1017AC0080BD000080B586B002AF03460A46FB71CF
:1017BC001346BB71FB7923F00F03FB73FB791B0101
:1017CC00BB731C4BDB7A002B07D0FB7B43F008036D
:1017DC00FB73BB7B43F00803BB73BB79012B07D1B5
:1017EC00FB7B43F00103FB73BB7B43F00103BB7337
:1017FC00FB7B43F00403DBB23B72FB7B7B72BB7B5A
:10180C0043F00403DBB2BB72BB7BFB72094B186861
:10181C00084B1B799BB25B0099B207F108024FF49D
:10182C007A730093042301F0A5FD00BF1037BD4669
:10183C0080BD00BF2401002080B584B000AF78606B
:10184C00084611461A460346FB700B46BB701346FE
:10185C007B704A4A7B681360484AFB781371474A8D
:10186C007B785371454ABB789371444B28221A728A
:10187C00424B0622DA71414B0C225A723F4B142216
:10188C009A723E4B0822DA723220FFF77DFF3C4BF6
:10189C001B68002B04D03A4B1B68184605F00AFA5B
:1018AC00BB787A7802FB03F3DB00184605F0FAF9F3
:1018BC0003461A46324B1A600023FB7308E0304B88
:1018CC001A68FB7B134420221A70FB7B0133FB73D9
:1018DC00FA7B2A4B9B791946284B5B7901FB03F366
:1018EC009A42ECDB00213320FFF75CFF0021332010
:1018FC00FFF758FF0520FFF747FF00213220FFF7C5
:10190C0051FF0520FFF740FF00212020FFF74AFF81
:10191C000520FFF739FF194BDB7900211846FFF73B
:10192C0041FF0120FFF730FF144B5B7A0021184672
:10193C00FFF738FF0120FFF727FF104B9B7A0021A0
:10194C001846FFF72FFF0120FFF71EFF0B4B1B7AEA
:10195C0000211846FFF726FF0120FFF715FF002195
:10196C000120FFF71FFF0120FFF70EFF00210220CF
:10197C00FFF718FF00BF1037BD4680BD24010020C3
:10198C002001002080B584B000AF03460A46FB71ED
:10199C001346BB710023FB731D4B9A79FB79B3FB88
:1019AC00F2F101FB02F29B1AFB71194B5A79BB79CC
:1019BC00B3FBF2F101FB02F29B1ABB71FB79032B17
:1019CC0019D801A252F823F0E5190008EB19000808
:1019DC00F3190008FB190008BB79FB730BE0BB790A
:1019EC004033FB7307E0BB791433FB7303E0BB7923
:1019FC005433FB7300BFFB7B63F07F03DBB200212E
:101A0C001846FFF7CFFE00BF1037BD4680BD00BFA4
:101A1C002401002080B483B000AF0346FB710D4B52
:101A2C001B680D4A127811460C4A527901FB02F2DE
:101A3C000B4909780A441344FA791A70084B1B783D
:101A4C000133DAB2064B1A7000BF0C37BD4680BCAE
:101A5C00704700BF2001002031010020240100202C
:101A6C003001002080B483B000AF0346FB710B46FD
:101A7C00BB7113467B71154B9A79FB79B3FBF2F171
:101A8C0001FB02F29B1ADAB2114B1A700F4B5A7906
:101A9C00BB79B3FBF2F101FB02F29B1ADAB20D4BEC
:101AAC001A700D4B1B680A4A12781146074A527974
:101ABC0001FB02F2074909780A4413447A791A7037
:101ACC0000BF0C37BD4680BC704700BF240100200E
:101ADC0031010020300100202001002080B582B0AF
:101AEC0000AF03463A60FB710B46BB71134B9A79FE
:101AFC00FB79B3FBF2F101FB02F29B1ADAB2104B49
:101B0C001A700E4B5A79BB79B3FBF2F101FB02F25E
:101B1C009B1ADAB20B4B1A7006E03B685A1C3A60FF
:101B2C001B781846FFF776FF3B681B78002BF4D127
:101B3C0000BF00BF0837BD4680BD00BF2401002098
:101B4C00310100203001002080B584B000AF034685
:101B5C00FB710B46BB711346BB800023FB73304BF0
:101B6C00BB60FB7903F00103DAB22E4B1A70BB7920
:101B7C0003F00F03DAB22C4B1A70B7F90430002BB8
:101B8C0007DABB885B429BB2BB802D20FFF742FF7C
:101B9C0011E0B7F90430002B06D13020FFF73AFFE3
:101BAC003020FFF737FF38E0B7F90430092B02DC9F
:101BBC003020FFF72FFF0A23BB732BE0B7F904305B
:101BCC00BA689A420DD80123FB73B7F90420BB689D
:101BDC00B2FBF3F3DBB23033DBB21846FFF71AFF7C
:101BEC0005E0FB7B002B02D03020FFF713FFB7F989
:101BFC000430BA68B3FBF2F2B96801FB02F29B1A2B
:101C0C00BB80BB68094AA2FB0323DB08BB60BB7B20
:101C1C00013BBB73BB7B002BD0D11037BD4680BDC5
:101C2C0000CA9A3B3101002030010020CDCCCCCC35
:101C3C0080B584B000AF03463A60FB710B46BB71B4
:101C4C002F493868FEF7A0FC0346002B53D1FB79D3
:101C5C0003F00103DAB22B4B1A70BB7903F00F03BC
:101C6C00DAB2294B1A703868FEF7A2FC0346FB73F4
:101C7C00FB7B1846FEF7D2FB034619463868FEF785
:101C8C0017FB034621491846FEF75AFA0346184635
:101C9C00FEF78EFC0346BB73FB7B1D4AA2FB0323A2
:101CAC00DB08DBB23033DBB21846FFF7B3FEFA7B4E
:101CBC00174BA3FB0213D9080B469B000B445B008C
:101CCC00D31ADBB23033DBB21846FFF7A3FE2E205B
:101CDC00FFF7A0FEBA7B0E4BA3FB0213D9080B46F1
:101CEC009B000B445B00D31ADBB23033DBB21846DB
:101CFC00FFF790FE00E000BF1037BD4680BD00BF6F
:101D0C000000C842310100203001002000002041B9
:101D1C00CDCCCCCC80B582B000AF0023FB7121E0E0
:101D2C00FB7900211846FFF72DFE0023BB7111E053
:101D3C00114B1B68FA791149497902FB01F1BA7907
:101D4C000A4413441B7801211846FFF72BFDBB797D
:101D5C000133BB71094B5B79BA799A42E8D3FB79B1
:101D6C000133FB71054B9B79FA799A42D8D300BFAA
:101D7C0000BF0837BD4680BD200100202401002093
:101D8C0080B584B000AF03463960FB71FB79083332
:101D9C00DBB2DB00DBB200211846FFF703FD0023AA
:101DAC00FB730AE0FB7B3A6813441B78012118464D
:101DBC00FFF7F8FCFB7B0133FB73FB7B072BF1D9A3
:101DCC0000BF00BF1037BD4680BD000080B500AF1E
:101DDC000E490020FFF7D4FF0D490120FFF7D0FF7B
:101DEC000C490220FFF7CCFF0B490320FFF7C8FF7B
:101DFC000A490420FFF7C4FF09490520FFF7C0FF7B
:101E0C0008490620FFF7BCFF00BF80BD140000206E
:101E1C001C000020240000202C0000203400002096
:101E2C003C0000204400002080B582B000AF034687
:101E3C000A46FB711346BB71AE4B00221A70FB793C
:101E4C0003F00F03DAB2AC4B1A7097F90630092B7A
:101E5C0000F2308101A252F823F000BF911E00085D
:101E6C00C91E0008011F0008391F0008711F000857
:101E7C00A91F0008E11F00081920000851200008C4
:101E8C00892000080020FFF7C5FD0120FFF7C2FDE7
:101E9C000220FFF7BFFD974B01221A70FB7903F06C
:101EAC000F03DAB2944B1A700320FFF7B3FD042032
:101EBC00FFF7B0FD0520FFF7ADFD17E10120FFF79F
:101ECC00A9FD0220FFF7A6FD2020FFF7A3FD894BFB
:101EDC0001221A70FB7903F00F03DAB2864B1A70E9
:101EEC000420FFF797FDFF20FFF794FD0420FFF778
:101EFC0091FDFBE00620FFF78DFD0620FFF78AFD24
:101F0C000220FFF787FD7B4B01221A70FB7903F04F
:101F1C000F03DAB2784B1A700320FFF77BFD042015
:101F2C00FFF778FD0420FFF775FDDFE00620FFF7D3
:101F3C0071FD0620FFF76EFD0220FFF76BFD6D4B68
:101F4C0001221A70FB7903F00F03DAB26A4B1A7094
:101F5C000420FFF75FFD0420FFF75CFD0520FFF771
:101F6C0059FDC3E00320FFF755FD0420FFF752FD98
:101F7C000220FFF74FFD5F4B01221A70FB7903F033
:101F8C000F03DAB25C4B1A702020FFF743FD2020C0
:101F9C00FFF740FDFF20FFF73DFDA7E00320FFF713
:101FAC0039FD0620FFF736FD0620FFF733FD514BB8
:101FBC0001221A70FB7903F00F03DAB24E4B1A7040
:101FCC000420FFF727FD0420FFF724FD0520FFF771
:101FDC0021FD8BE00020FFF71DFD0620FFF71AFD09
:101FEC000620FFF717FD434B01221A70FB7903F013
:101FFC000F03DAB2404B1A700320FFF70BFD0420DD
:10200C00FFF708FD0520FFF705FD6FE00120FFF746
:10201C0001FD0120FFF7FEFC0220FFF7FBFC354B16
:10202C0001221A70FB7903F00F03DAB2324B1A70EB
:10203C002020FFF7EFFC2020FFF7ECFC0520FFF73A
:10204C00E9FC53E00020FFF7E5FC0620FFF7E2FC7B
:10205C000220FFF7DFFC274B01221A70FB7903F0FB
:10206C000F03DAB2244B1A700320FFF7D3FC0420C1
:10207C00FFF7D0FC0520FFF7CDFC37E00020FFF781
:10208C00C9FC0620FFF7C6FC0220FFF7C3FC194B66
:10209C0001221A70FB7903F00F03DAB2164B1A7097
:1020AC000420FFF7B7FC0420FFF7B4FC0520FFF772
:1020BC00B1FC1BE02020FFF7ADFC2020FFF7AAFCB1
:1020CC002020FFF7A7FC0B4B01221A70FB7903F0C1
:1020DC000F03DAB2084B1A702020FFF79BFC20206C
:1020EC00FFF798FC2020FFF795FC00BF00BF0837D6
:1020FC00BD4680BD310100203001002080B582B08A
:10210C0000AF03460A46FB711346BB7197F90630C4
:10211C00622B22DC97F90630184A82FB03129210CC
:10212C00DB17D31A5AB2FB7911461846FFF77CFE1F
:10213C00FB790333D8B297F90620104B83FB0213BB
:10214C009910D317C91A0B469B000B445B00D31A8A
:10215C005BB21946FFF768FE0BE0FB7920211846AD
:10216C00FFF762FEFB790333DBB220211846FFF741
:10217C005BFE00BF0837BD4680BD00BF6766666664
:10218C0080B500AF00F0E8FB00F06AF800F076F9DB
:10219C0000F0ACF800F024F900F0D6F8284804F070
:1021AC009DF80021264804F035F9264800F05AFB2A
:1021BC00322000F077FBFFF747FAFEF7BDFB102348
:1021CC0002223F212048FFF737FBFFF7FFFD1E4897
:1021DC00FEF79CFA1A4A20211C48FEF73DFA00F043
:1021EC0083FB0346002BFAD0194B1B780133194A99
:1021FC0082FB03129111DA178A1AC82101FB02F231
:10220C009A1AD2B2124B1A70134B1B88042B05D995
:10221C00114B1B88053B9AB20F4B1A800F4B1B8836
:10222C00042B05D90D4B1B88053B9AB20B4B1A801E
:10223C00FFF710FAFEF790FBFFF76CFDCFE700BF3E
:10224C00D00100208801002034010020000C014046
:10225C000C0100201F85EB510E0100201201002003
:10226C0080B590B000AF07F1180328220021184662
:10227C0004F028FD3B1D00221A605A609A60DA6057
:10228C001A610123BB614FF48033FB6100233B6275
:10229C000123BB6202237B634FF48033BB634FF497
:1022AC00E013FB6307F11803184603F0C1FB034668
:1022BC00002B01D000F04EF90F237B600223BB6092
:1022CC000023FB604FF480633B6100237B613B1D6B
:1022DC000221184603F02EFE0346002B01D000F01D
:1022EC0039F900BF4037BD4680BD000080B500AF56
:1022FC00124B134A1A60114B124A5A600F4B0022B0
:10230C009A600E4B0022DA600C4B4FF480421A613B
:10231C000A4B00225A61094B00229A61074B00229A
:10232C00DA61064B00221A62044800F0DFFE034615
:10233C00002B01D000F00EF900BF80BD340100204D
:10234C0000540040A086010080B586B000AF07F1B4
:10235C00080300221A605A609A60DA603B46002239
:10236C001A605A601D4B4FF080421A601B4B48F6A6
:10237C009F425A60194B00229A60184B6322DA6014
:10238C00164B00221A61154B00229A61134803F078
:10239C0055FF0346002B01D000F0DCF84FF48053BE
:1023AC00BB6007F1080319460C4804F0DDF903463D
:1023BC00002B01D000F0CEF800233B6000237B60A3
:1023CC003B461946054804F0D3FB0346002B01D0CD
:1023DC0000F0C0F800BF1837BD4680BD8801002052
:1023EC0080B586B000AF07F1080300221A605A606E
:1023FC009A60DA603B4600221A605A601D4B1E4AF6
:10240C001A601C4B47225A601A4B00229A60194BD7
:10241C004FF6FE72DA60174B00221A61154B002240
:10242C009A61144803F00AFF0346002B01D000F018
:10243C0091F84FF48053BB6007F1080319460D481F
:10244C0004F092F90346002B01D000F083F800232E
:10245C003B6000237B603B461946064804F088FB32
:10246C000346002B01D000F075F800BF1837BD46AD
:10247C0080BD00BFD00100200004004080B588B0B2
:10248C0000AF07F1100300221A605A609A60DA60FC
:10249C002D4B9B692C4A43F0200393612A4B9B697B
:1024AC0003F02003FB60FB68274B9B69264A43F033
:1024BC0004039361244B9B6903F00403BB60BB686A
:1024CC00214B9B69204A43F0080393611E4B9B6987
:1024DC0003F008037B607B68002220211B4800F07E
:1024EC00ECFD002220211A4800F0E7FD40F20C43DD
:1024FC003B6100237B610123BB6107F1100319468B
:10250C00124800F03FFC20233B6101237B61012337
:10251C00BB610223FB6107F1100319460B4800F065
:10252C0031FC20233B6101237B610123BB6102232E
:10253C00FB6107F110031946054800F023FC00BFAE
:10254C002037BD4680BD00BF00100240000801408E
:10255C00000C014080B400AF72B600BFFEE7000073
:10256C0080B485B000AF154B9B69144A43F001034E
:10257C009361124B9B6903F00103BB60BB680F4B6B
:10258C00DB690E4A43F08053D3610C4BDB6903F0DB
:10259C0080537B607B680A4B5B68FB60FB6823F0B5
:1025AC00E063FB60FB6843F00073FB60044AFB686C
:1025BC00536000BF1437BD4680BC7047001002400A
:1025CC000000014080B58AB000AF786007F11403B9
:1025DC0000221A605A609A60DA607B681B68254A90
:1025EC00934242D1244B9B69234A43F008039361E5
:1025FC00214B9B6903F008033B613B694FF440732B
:10260C007B611223BB6103233B6207F11403194660
:10261C001A4800F0B7FB1A4B5B687B627B6A43F08D
:10262C00E0637B627B6A43F002037B62144A7B6A41
:10263C005360114BDB69104A43F40013D3610E4B0A
:10264C00DB6903F40013FB60FB68002200211F20F0
:10265C0000F0DFFA1F2000F0F8FA00220021202001
:10266C0000F0D7FA202000F0F0FA00BF2837BD4662
:10267C0080BD00BF0054004000100240000C01401F
:10268C000000014080B584B000AF78607B681B68A7
:10269C00B3F1804F14D1154BDB69144A43F001039D
:1026AC00D361124BDB6903F00103FB60FB68002272
:1026BC0000211C2000F0ADFA1C2000F0C6FA10E03E
:1026CC007B681B680A4A93420BD1084BDB69074AAB
:1026DC0043F00203D361054BDB6903F00203BB60DB
:1026EC00BB6800BF1037BD4680BD00BF0010024064
:1026FC000004004080B400AFFEE780B400AFFEE7FA
:10270C0080B400AFFEE780B400AFFEE780B400AF4A
:10271C00FEE780B400AF00BFBD4680BC704780B4FC
:10272C0000AF00BFBD4680BC704780B400AF00BF97
:10273C00BD4680BC704780B500AF00F053F900BFB8
:10274C0080BD000080B500AF024803F005FF00BF5C
:10275C0080BD00BF8801002080B500AF024801F0A9
:10276C0067F900BF80BD00BF3401002080B500AF09
:10277C00024801F0CEFA00BF80BD00BF340100203A
:10278C0080B586B000AF7860144A154BD31A7B61C4
:10279C007B693B61134B1B68002B02D1114B124A16
:1027AC001A60104B1A687B6813443A699A4207D234
:1027BC0004F04EFA03460C221A604FF0FF3309E086
:1027CC00084B1B68FB60074B1A687B681344054A6F
:1027DC001360FB6818461837BD4680BD00500020BA
:1027EC0000040000180200203802002080B400AF62
:1027FC0000BFBD4680BC704780B400AF0C4B1B784B
:10280C00002B10D00A4B1B78013BDAB2084B1A7024
:10281C00074B1B78002B06D1064B1A78044B1A7009
:10282C00054B01221A7000BFBD4680BC704700BF2B
:10283C0021020020510000202002002080B582B02F
:10284C0000AF78607B681A68054B1B681B689A425E
:10285C0001D1FFF7D1FF00BF0837BD4680BD00BFD7
:10286C001C02002080B582B000AF7860094A7B68FA
:10287C001360094B1A78094B1A70094B00221A7015
:10288C00044B1B68184603F073FD00BF0837BD46A8
:10289C0080BD00BF1C02002051000020210200203E
:1028AC002002002080B483B000AF0346FB80FB887D
:1028BC00094A127893FBF2F3DAB2084B1A70074B01
:1028CC001A78074B1A70074B00221A7000BF0C378E
:1028DC00BD4680BC704700BF500000205100002056
:1028EC00210200202002002080B400AF064B1B7890
:1028FC00002B04D0044B00221A70012300E00023AB
:10290C001846BD4680BC7047200200200C480D497B
:10291C000D4A002302E0D458C4500433C4188C422E
:10292C00F9D30A4A0A4C002301E013600432A24294
:10293C00FBD3FFF75BFF04F091F9FFF721FC704725
:10294C0000000020C000002000700008C000002023
:10295C0038020020FEE7000080B500AF084B1B6872
:10296C00074A43F010031360032000F047F90F20CF
:10297C0000F008F8FFF7F4FD0023184680BD00BFF7
:10298C000020024080B582B000AF7860124B1A680C
:10299C00124B1B7819464FF47A73B3FBF1F3B2FB6D
:1029AC00F3F3184600F05FF90346002B01D0012326
:1029BC000EE07B680F2B0AD8002279684FF0FF30AD
:1029CC0000F027F9064A7B681360002300E001231E
:1029DC0018460837BD4680BD4C000020580000202A
:1029EC005400002080B400AF054B1B781A46054BF1
:1029FC001B681344034A136000BFBD4680BC70477C
:102A0C00580000202402002080B400AF024B1B6849
:102A1C001846BD4680BC70472402002080B584B0A7
:102A2C0000AF7860FFF7F0FFB8607B68FB60FB6875
:102A3C00B3F1FF3F05D00A4B1B781A46FB681344D1
:102A4C00FB6000BFFFF7E0FF0246BB68D31AFA68D1
:102A5C009A42F7D800BF00BF1037BD4680BD00BFFB
:102A6C005800002080B485B000AF78607B6803F01C
:102A7C000703FB600C4BDB68BB60BA684FF6FF03C7
:102A8C001340BB60FB681A02BB68134343F0BF637F
:102A9C0043F40033BB60044ABB68D36000BF1437F7
:102AAC00BD4680BC704700BF00ED00E080B400AFB5
:102ABC00044BDB681B0A03F007031846BD4680BCB9
:102ACC00704700BF00ED00E080B483B000AF034658
:102ADC00FB7197F90730002B0BDBFB7903F01F021E
:102AEC00064997F907305B09012000FA02F241F818
:102AFC00232000BF0C37BD4680BC704700E100E0CE
:102B0C0080B483B000AF03463960FB7197F907308E
:102B1C00002B0ADB3B68DAB20C4997F9073012013B
:102B2C00D2B20B4483F800230AE03B68DAB20849BE
:102B3C00FB7903F00F03043B1201D2B20B441A765B
:102B4C0000BF0C37BD4680BC704700BF00E100E001
:102B5C0000ED00E080B489B000AFF860B9607A6035
:102B6C00FB6803F00703FB61FB69C3F10703042B4C
:102B7C0028BF0423BB61FB690433062B02D9FB6914
:102B8C00033B00E000237B614FF0FF32BB6902FA8C
:102B9C0003F3DA43BB681A407B699A404FF0FF316C
:102BAC007B6901FA03F3D9437B680B401343184646
:102BBC002437BD4680BC704780B582B000AF7860CA
:102BCC007B68013BB3F1807F01D301230FE00A4AFC
:102BDC007B68013B53600F214FF0FF30FFF790FFF4
:102BEC00054B00229A60044B07221A6000231846FA
:102BFC000837BD4680BD00BF10E000E080B582B054
:102C0C0000AF78607868FFF72DFF00BF0837BD462E
:102C1C0080BD80B586B000AF0346B9607A60FB73A7
:102C2C0000237B61FFF742FF78617A68B9687869A5
:102C3C00FFF790FF024697F90F3011461846FFF741
:102C4C005FFF00BF1837BD4680BD80B582B000AFB6
:102C5C000346FB7197F907301846FFF735FF00BFA5
:102C6C000837BD4680BD80B582B000AF786078680B
:102C7C00FFF7A2FF034618460837BD4680BD00008B
:102C8C0080B584B000AF78600023FB737B6893F849
:102C9C002130022B05D07B6804229A630123FB733D
:102CAC0051E07B681B681A687B681B6822F00E0277
:102CBC001A607B681B681A687B681B6822F001022B
:102CCC001A607B681B68224A934229D07B681B6878
:102CDC00204A934222D07B681B681F4A93421AD029
:102CEC007B681B681D4A934212D07B681B681C4A88
:102CFC0093420AD07B681B681A4A934202D14FF464
:102D0C0080130EE04FF080730BE04FF4803308E03B
:102D1C004FF4805305E04FF4807302E0102300E081
:102D2C000123114A53607B68012283F821207B68C0
:102D3C00002283F820207B685B6B002B03D07B6820
:102D4C005B6B78689847FB7B18461037BD4680BD97
:102D5C00080002401C0002403000024044000240C7
:102D6C00580002406C0002400000024080B483B066
:102D7C0000AF78607B6893F8213018460C37BD465D
:102D8C0080BC704780B48BB000AF78603960002392
:102D9C007B6200233B6269E101227B6A02FA03F346
:102DAC00FB613B681B68FA691340BB61BA69FB693C
:102DBC009A4240F058813B685B689A4A93425ED0D5
:102DCC00984A934275D8984A934258D0964A93425F
:102DDC006FD8964A934252D0944A934269D8944AF7
:102DEC0093424CD0924A934263D8924A934246D033
:102DFC00904A93425DD8122B2AD8122B59D801A293
:102E0C0052F823F08B2E0008652E0008772E000850
:102E1C00B92E0008BF2E0008BF2E0008BF2E0008D8
:102E2C00BF2E0008BF2E0008BF2E0008BF2E0008C2
:102E3C00BF2E0008BF2E0008BF2E0008BF2E0008B2
:102E4C00BF2E0008BF2E00086D2E0008812E000832
:102E5C00794A934213D02CE03B68DB683B6229E053
:102E6C003B68DB6804333B6224E03B68DB68083377
:102E7C003B621FE03B68DB680C333B621AE03B684B
:102E8C009B68002B02D104233B6213E03B689B68D8
:102E9C00012B05D108233B627B68FA691A6109E0B2
:102EAC0008233B627B68FA695A6103E000233B62AA
:102EBC0000E000BFBB69FF2B01D87B6801E07B6899
:102ECC0004337B61BB69FF2B02D87B6A9B0002E059
:102EDC007B6A083B9B003B617B691A680F213B694D
:102EEC0001FA03F3DB431A40396A3B6901FA03F335
:102EFC001A437B691A603B685B6803F08053002BB4
:102F0C0000F0B1804D4B9B694C4A43F00103936137
:102F1C004A4B9B6903F00103BB60BB68484A7B6A60
:102F2C009B08023352F82330FB607B6A03F00303E7
:102F3C009B000F2202FA03F3DB43FA681340FB6099
:102F4C007B68404A934213D07B683F4A93420DD032
:102F5C007B683E4A934207D07B683D4A934201D13D
:102F6C00032306E0042304E0022302E0012300E033
:102F7C0000237A6A02F0030292009340FA6813432A
:102F8C00FB602F497B6A9B080233FA6841F82320C7
:102F9C003B685B6803F48033002B06D02D4B1A681A
:102FAC002C49BB6913430B6006E02A4B1A68BB69BA
:102FBC00DB43284913400B603B685B6803F4003328
:102FCC00002B06D0234B5A682249BB6913434B6034
:102FDC0006E0204B5A68BB69DB431E4913404B602B
:102FEC003B685B6803F48013002B06D0194B9A687E
:102FFC001849BB6913438B6006E0164B9A68BB6992
:10300C00DB43144913408B603B685B6803F400138B
:10301C00002B21D00F4BDA680E49BB691343CB60F0
:10302C0021E000BF0000321000003110000022101F
:10303C0000002110000012100000111000100240BE
:10304C000000014000080140000C0140001001404C
:10305C0000140140000401400B4BDA68BB69DB43F0
:10306C0009491340CB607B6A01337B623B681A6869
:10307C007B6A22FA03F3002B7FF48EAE00BF00BFF5
:10308C002C37BD4680BC70470004014080B485B02D
:10309C0000AF78600B467B807B689A687B88134016
:1030AC00002B02D00123FB7301E00023FB73FB7B9D
:1030BC0018461437BD4680BC704780B483B000AF4F
:1030CC0078600B467B8013467B707B78002B03D09B
:1030DC007A887B681A6103E07B881A047B681A6122
:1030EC0000BF0C37BD4680BC7047000080B584B073
:1030FC0000AF78607B68002B01D101232BE17B684A
:10310C0093F83D30DBB2002B06D17B68002283F8AC
:10311C003C207868FFF756FA7B68242283F83D2020
:10312C007B681B681A687B681B6822F001021A60B6
:10313C007B681B681A687B681B6842F400421A6043
:10314C007B681B681A687B681B6822F400421A6053
:10315C0003F042F8F8607B685B68814A934207D8B9
:10316C00FB68804A934294BF01230023DBB206E044
:10317C00FB687D4A934294BF01230023DBB2002BF2
:10318C0001D00123E7E0FB68784AA2FB03239B0CE8
:10319C00BB607B681B685B6823F03F017B681B6826
:1031AC00BA680A435A607B681B681B6A23F03F01AC
:1031BC007B685B686A4A934202D8BB68013309E0BA
:1031CC00BB684FF4967202FB03F3694AA2FB03231C
:1031DC009B0901337A6812680B4313627B681B6886
:1031EC00DB6923F44F4222F0FF027B685B685C4989
:1031FC008B4219D8FB68591E7B685B685B00B1FB7E
:10320C00F3F3591C40F6FC730B40002B0AD0FB68FF
:10321C00591E7B685B685B00B1FBF3F30133C3F3AE
:10322C000B0351E004234FE07B689B68002B11D10A
:10323C00FB68581E7B6859680B465B000B44B0FB5F
:10324C00F3F30133C3F30B03002B0CBF0123002357
:10325C00DBB212E0FB68581E7B6859680B469B007A
:10326C000B4499000B44B0FBF3F30133C3F30B0392
:10327C00002B0CBF01230023DBB2002B01D0012358
:10328C0022E07B689B68002B0ED1FB68581E7B6884
:10329C0059680B465B000B44B0FBF3F30133C3F3EB
:1032AC000B0343F400430FE0FB68581E7B6859681E
:1032BC000B469B000B4499000B44B0FBF3F301331A
:1032CC00C3F30B0343F44043796809681343CB61A0
:1032DC007B681B681B6823F0C0017B68DA697B681C
:1032EC001B6A1A437B681B680A431A607B681B685D
:1032FC009B6823F4034323F0FF037A6811697A680F
:10330C00D26811437A6812680B4393607B681B6820
:10331C00DB6823F0FF017B685A697B689B691A4361
:10332C007B681B680A43DA607B681B681A687B68D9
:10333C001B6842F001021A607B6800221A647B68E9
:10334C00202283F83D207B6800221A637B680022D0
:10335C0083F83E20002318461037BD4680BD00BFC1
:10336C00A08601007F841E00FF083D0083DE1B4306
:10337C00D34D621080B588B002AFF8607A601A46FF
:10338C000B467B8113463B81FFF73EFB7861FB6864
:10339C0093F83D30DBB2202B40F0E0807B6900934A
:1033AC00192301227049F86802F01AF90346002B20
:1033BC0001D00223D3E0FB6893F83C30012B01D100
:1033CC000223CCE0FB68012283F83C20FB681B68DD
:1033DC001B6803F00103012B07D0FB681B681A68FC
:1033EC00FB681B6842F001021A60FB681B681A68D4
:1033FC00FB681B6822F400621A60FB68212283F8C8
:10340C003D20FB68102283F83E20FB6800221A64E2
:10341C00FB687A685A62FB683A895A85FB685B8D4F
:10342C009AB2FB681A85FB68504ADA6279897B6923
:10343C003A6AF86801F0DCFE0346002B01D0012348
:10344C008DE000233B61FB681B685B693B61FB689B
:10345C001B689B693B613B6966E07A69396AF8686D
:10346C0002F094F90346002B0DD0FB681B6C042B67
:10347C0007D1FB681B681A68FB681B6842F4007272
:10348C001A6001236BE0FB685B6A1A78FB681B68A7
:10349C001A61FB685B6A5A1CFB685A62FB685B8D9D
:1034AC009BB2013B9AB2FB685A85FB681B8D013BB2
:1034BC009AB2FB681A85FB681B685B6903F004030E
:1034CC00042B1BD1FB681B8D002B17D0FB685B6A90
:1034DC001A78FB681B681A61FB685B6A5A1CFB68EC
:1034EC005A62FB685B8D9BB2013B9AB2FB685A85B2
:1034FC00FB681B8D013B9AB2FB681A857A69396AA5
:10350C00F86802F084F90346002B0DD0FB681B6CA5
:10351C00042B07D1FB681B681A68FB681B6842F414
:10352C0000721A6001231AE0FB681B8D002B94D1EA
:10353C00FB681B681A68FB681B6842F400721A600F
:10354C00FB68202283F83D20FB68002283F83E2094
:10355C00FB68002283F83C20002300E0022318467D
:10356C001837BD4680BD00BF020010000000FFFFF1
:10357C0080B58CB002AFF8607A601A460B467B813E
:10358C0013463B8100233B62FFF73EFA7862FB68EF
:10359C0093F83D30DBB2202B40F03F827B6A0093E6
:1035AC00192301227F49F86802F01AF80346002B10
:1035BC0001D0022332E2FB6893F83C30012B01D19D
:1035CC0002232BE2FB68012283F83C20FB681B687A
:1035DC001B6803F00103012B07D0FB681B681A68FA
:1035EC00FB681B6842F001021A60FB681B681A68D2
:1035FC00FB681B6822F400621A60FB68222283F8C5
:10360C003D20FB68102283F83E20FB6800221A64E0
:10361C00FB687A685A62FB683A895A85FB685B8D4D
:10362C009AB2FB681A85FB685F4ADA6279897B6A11
:10363C003A6BF86801F05EFE0346002B01D00123C3
:10364C00ECE1FB681B8D002B13D10023FB61FB68A5
:10365C001B685B69FB61FB681B689B69FB61FB6911
:10366C00FB681B681A68FB681B6842F400721A60DE
:10367C00C0E1FB681B8D012B1ED1FB681B681A680F
:10368C00FB681B6822F480621A6072B600BF0023CC
:10369C00BB61FB681B685B69BB61FB681B689B6952
:1036AC00BB61BB69FB681B681A68FB681B6842F44A
:1036BC0000721A6062B635E0FB681B8D022B1ED1BE
:1036CC00FB681B681A68FB681B6842F400621A608E
:1036DC0072B600BF00237B61FB681B685B697B6172
:1036EC00FB681B689B697B617B69FB681B681A68BC
:1036FC00FB681B6822F480621A6062B612E0FB68F9
:10370C001B681A68FB681B6842F480621A6000230D
:10371C003B61FB681B685B693B61FB681B689B69D1
:10372C003B613B6966E1FB681B8D032B00F21F813B
:10373C00FB681B8D012B23D17A6A396BF86802F078
:10374C00D9F80346002B01D0012367E1FB681B6805
:10375C001A69FB685B6AD2B21A70FB685B6A5A1C06
:10376C00FB685A62FB681B8D013B9AB2FB681A8599
:10377C00FB685B8D9BB2013B9AB2FB685A8539E1C1
:10378C00FB681B8D022B52D17B6A00933B6B002292
:10379C000649F86801F024FF0346002B08D00123EA
:1037AC003CE100BF020010000000FFFF040001001C
:1037BC0072B600BFFB681B681A68FB681B6842F492
:1037CC0000721A60FB681B681A69FB685B6AD2B2EC
:1037DC001A70FB685B6A5A1CFB685A62FB681B8D8B
:1037EC00013B9AB2FB681A85FB685B8D9BB2013B6F
:1037FC009AB2FB685A8562B600BFFB681B681A69EF
:10380C00FB685B6AD2B21A70FB685B6A5A1CFB6875
:10381C005A62FB681B8D013B9AB2FB681A85FB68E8
:10382C005B8D9BB2013B9AB2FB685A85E2E07B6AE6
:10383C0000933B6B00227B49F86801F0D1FE0346F4
:10384C00002B01D00123E9E0FB681B681A68FB68B8
:10385C001B6822F480621A6072B600BFFB681B689A
:10386C001A69FB685B6AD2B21A70FB685B6A5A1CF5
:10387C00FB685A62FB681B8D013B9AB2FB681A8588
:10388C00FB685B8D9BB2013B9AB2FB685A85664B19
:10389C001B68DB08654AA2FB03231A0A13469B002C
:1038AC001344DA00D31A3B623B6A013B3B623B6A2E
:1038BC00002B18D1FB6800221A63FB68202283F8C6
:1038CC003D20FB68002283F83E20FB681B6C43F014
:1038DC002002FB681A6462B600BFFB68002283F802
:1038EC003C2001239AE0FB681B685B6903F004032E
:1038FC00042BD9D1FB681B681A68FB681B6842F45F
:10390C0000721A60FB681B681A69FB685B6AD2B2AA
:10391C001A70FB685B6A5A1CFB685A62FB681B8D49
:10392C00013B9AB2FB681A85FB685B8D9BB2013B2D
:10393C009AB2FB685A8562B600BFFB681B681A69AD
:10394C00FB685B6AD2B21A70FB685B6A5A1CFB6834
:10395C005A62FB681B8D013B9AB2FB681A85FB68A7
:10396C005B8D9BB2013B9AB2FB685A8542E07A6A46
:10397C00396BF86801F0BEFF0346002B01D0012320
:10398C004CE0FB681B681A69FB685B6AD2B21A7060
:10399C00FB685B6A5A1CFB685A62FB681B8D013B17
:1039AC009AB2FB681A85FB685B8D9BB2013B9AB29D
:1039BC00FB685A85FB681B685B6903F00403042BE6
:1039CC0018D1FB681B681A69FB685B6AD2B21A7063
:1039DC00FB685B6A5A1CFB685A62FB681B8D013BD7
:1039EC009AB2FB681A85FB685B8D9BB2013B9AB25D
:1039FC00FB685A85FB681B8D002B7FF494AEFB682B
:103A0C00202283F83D20FB68002283F83E20FB68CF
:103A1C00002283F83C20002300E0022318462837BC
:103A2C00BD4680BD040001004C00002089B5F8148F
:103A3C0080B588B000AF78600023BB617B681B68E1
:103A4C005B687B617B68DB6A3B617B6893F83E302B
:103A5C00FB737B6893F83D30BB73FB7B102B03D05F
:103A6C00FB7B402B40F0C1807B681B689B69BB6172
:103A7C007B681B685B69FB61FB6903F00103002B2E
:103A8C000DD13B69B3F52A0F03D03B69B3F12A4F33
:103A9C0001D1012300E00023012B00F03281FB69EE
:103AAC0003F00103002B0CD07B695B0A03F00103CC
:103ABC00002B06D0786801F0A1FF786800F077FD44
:103ACC0092E0FB69DB0803F00103002B09D07B6952
:103ADC005B0A03F00103002B03D0786800F0ECFDC7
:103AEC0082E0FB695B0803F00103002B09D07B69C2
:103AFC005B0A03F00103002B03D0786800F005FE8D
:103B0C0072E0BB699B0803F00103002B3BD07B6880
:103B1C001B685B6803F40063B3F5006F00F0F3807F
:103B2C00FB69DB0903F00103002B0FD07B699B0AB7
:103B3C0003F00103002B09D0FB699B0803F0010380
:103B4C00002B03D1786800F0F1F94DE0FB699B087C
:103B5C0003F00103002B00F0D6807B695B0A03F0B5
:103B6C000103002B00F0CF80BB7B212B03D17868A5
:103B7C0000F078FAC7E0FB7B402B40F0C4807868FB
:103B8C0000F0E6FABFE07B681B685B6803F4006337
:103B9C00B3F5006F00F0B780FB699B0903F00103DC
:103BAC00002B0FD07B699B0A03F00103002B09D07B
:103BBC00FB699B0803F00103002B03D1786800F02C
:103BCC005BFB11E0FB699B0803F00103002B00F089
:103BDC009A807B695B0A03F00103002B00F0938051
:103BEC00786800F0FAFB8EE08DE07B681B6C002B94
:103BFC0004D07B681B685B69FB6107E07B681B6812
:103C0C009B69BB617B681B685B69FB61FB695B083B
:103C1C0003F00103002B12D07B695B0A03F0010354
:103C2C00002B0CD07B681B6C002B03D07B681B68B3
:103C3C009B69BB61B969786800F0BEFF66E0FB69FF
:103C4C001B0903F00103002B09D07B695B0A03F00D
:103C5C000103002B03D0786800F0F8FF56E0BB7B23
:103C6C00212B02D0BB7B292B25D1FB69DB0903F06F
:103C7C000103002B0FD07B699B0A03F00103002B7F
:103C8C0009D0FB699B0803F00103002B03D1786872
:103C9C0000F0D6FE39E0FB699B0803F00103002B12
:103CAC0033D07B695B0A03F00103002B2DD07868BD
:103CBC0000F003FF29E0FB699B0903F00103002BD3
:103CCC000FD07B699B0A03F00103002B09D0FB6921
:103CDC009B0803F00103002B03D1786800F00DFF63
:103CEC0014E0FB699B0803F00103002B0ED07B69E9
:103CFC005B0A03F00103002B08D0786800F03BFF4F
:103D0C0004E000BF02E000BF00E000BF2037BD466A
:103D1C0080BD80B58AB000AF78607B681B685B693A
:103D2C003B627B681B685B68FB6100237B627B6882
:103D3C0093F83E30FB763B6A1B0A03F00103002B21
:103D4C0016D0FB691B0A03F00103002B10D07B6A11
:103D5C0043F001037B627B681B686FF480725A61CD
:103D6C007B681B681A687B681B6842F400421A6007
:103D7C003B6A5B0A03F00103002B0ED0FB691B0AA4
:103D8C0003F00103002B08D07B6A43F002037B6233
:103D9C007B681B686FF400725A613B6A9B0A03F0E4
:103DAC000103002B3FD0FB691B0A03F00103002B1E
:103DBC0039D0FB7EBB767B685B8D9BB27B617B686D
:103DCC0093F83D30FB747B681B6BFB60BB7E202B38
:103DDC0012D17B69002B0FD1FB7C212B08D0FB7CF3
:103DEC00292B05D0FB7C282B06D1FB68212B03D17A
:103DFC00786801F05BF816E07B681B686FF48062F2
:103E0C005A617B6A43F004037B62FB7E102B02D069
:103E1C00FB7E402B07D17B681B681A687B681B688C
:103E2C0042F400721A603B6ADB0A03F00103002BB8
:103E3C000ED0FB691B0A03F00103002B08D07B6A30
:103E4C0043F008037B627B681B686FF400625A6165
:103E5C007B6A002B08D07B681A6C7B6A1A437B68E0
:103E6C001A64786801F092F800BF2837BD4680BD0F
:103E7C0080B483B000AF786000BF0C37BD4680BC07
:103E8C00704780B483B000AF786000BF0C37BD467C
:103E9C0080BC704780B483B000AF786000BF0C3733
:103EAC00BD4680BC704780B483B000AF786000BF63
:103EBC000C37BD4680BC704780B483B000AF7860CF
:103ECC000B46FB7013463B8000BF0C37BD4680BCD5
:103EDC00704780B483B000AF786000BF0C37BD462C
:103EEC0080BC704780B483B000AF786000BF0C37E3
:103EFC00BD4680BC704780B483B000AF786000BF13
:103F0C000C37BD4680BC704780B483B000AF78607E
:103F1C0000BF0C37BD4680BC704780B483B000AF87
:103F2C00786000BF0C37BD4680BC704780B584B04C
:103F3C0000AF78607B6893F83D30FB737B6893F837
:103F4C003E30BB737B68DB6ABB607B681B8D002BD0
:103F5C0050D1FB7B212B4DD1BB68082B1DD0BB68EE
:103F6C00202B1AD0BB6813F5803F16D07B681B68DA
:103F7C005A687B681B6822F4E0625A607B681122E5
:103F8C001A637B68002283F83E207B68202283F82A
:103F9C003D207868FFF76CFF60E07B681B685A680F
:103FAC007B681B6822F4E0625A607B681B681A68A5
:103FBC007B681B6842F400721A607B6800221A63EB
:103FCC007B68202283F83D207B6893F83E30DBB27F
:103FDC00402B07D17B68002283F83E207868FFF7DE
:103FEC0081FF3BE07B68002283F83E207868FFF776
:103FFC003FFF33E0FB7B212B05D0BB7B402B2DD12E
:10400C00FB7B222B2AD17B685B8D9BB2002B08D1CA
:10401C007B681B685A687B681B6822F480625A6054
:10402C001CE07B6893F83E30DBB2402B03D1786800
:10403C0000F08EF812E07B685B6A1A787B681B686C
:10404C001A617B685B6A5A1C7B685A627B685B8D61
:10405C009BB2013B9AB27B685A85FFE700BF1037D1
:10406C00BD4680BD80B584B000AF78607B68DB6AEC
:10407C00FB607B6893F83D30DBB2212B64D17B680D
:10408C005B8D9BB2002B12D07B685B6A1A787B68C5
:10409C001B681A617B685B6A5A1C7B685A627B6876
:1040AC005B8D9BB2013B9AB27B685A854CE0FB68F6
:1040BC00082B1DD0FB68202B1AD0FB6813F5803F12
:1040CC0016D07B681B685A687B681B6822F4E06218
:1040DC005A607B6811221A637B68002283F83E20A9
:1040EC007B68202283F83D207868FFF7C1FE2BE027
:1040FC007B681B685A687B681B6822F4E0625A6014
:10410C007B681B681A687B681B6842F400721A6033
:10411C007B6800221A637B68202283F83D207B6831
:10412C0093F83E30DBB2402B07D17B68002283F83A
:10413C003E207868FFF7D6FE06E07B68002283F805
:10414C003E207868FFF794FE00BF1037BD4680BD57
:10415C0080B584B000AF78607B6893F83D30FB731A
:10416C007B681B6D002B1DD17B68DB6C012B0BD18D
:10417C007B689B6CDAB27B681B681A617B681B6D71
:10418C009A1C7B681A6573E07B689B6C9BB21B1254
:10419C00DAB27B681B681A617B681B6D5A1C7B68E2
:1041AC001A6565E07B681B6D012B0BD17B689B6CE2
:1041BC00DAB27B681B681A617B681B6D5A1C7B68C2
:1041CC001A6555E07B681B6D022B51D1FB7B222BB2
:1041DC000DD17B681B681A687B681B6842F480727F
:1041EC001A607B681B6D5A1C7B681A6540E07B6803
:1041FC005B8D9BB2002B15D0FB7B212B12D17B68E6
:10420C005B6A1A787B681B681A617B685B6A5A1C4C
:10421C007B685A627B685B8D9BB2013B9AB27B6870
:10422C005A8525E07B685B8D9BB2002B20D1FB7BF4
:10423C00212B1DD17B681B685A687B681B6822F494
:10424C00E0625A607B681B681A687B681B6842F4E2
:10425C0000721A607B6800221A637B68202283F844
:10426C003D207B68002283F83E207868FFF73AFEF9
:10427C0000BF1037BD4680BD80B584B000AF7860FC
:10428C007B6893F83D30DBB2222B40F0A2807B6838
:10429C005B8D9BB2FB60FB68032B21D97B681B6891
:1042AC001A697B685B6AD2B21A707B685B6A5A1CAB
:1042BC007B685A627B685B8D9BB2013B9AB27B68D0
:1042CC005A857B685B8D9BB2032B40F082807B68A8
:1042DC001B685A687B681B6822F480625A6078E01D
:1042EC007B68DB6A022B74D0FB68012B02D0FB6865
:1042FC00002B6ED1786801F0CBFA0346002B42D12B
:10430C007B681B681A687B681B6822F480621A60E1
:10431C007B681B685A687B681B6822F4E0625A60F1
:10432C007B681B681A697B685B6AD2B21A707B68FF
:10433C005B6A5A1C7B685A627B685B8D9BB2013B43
:10434C009AB27B685A857B68202283F83D207B6873
:10435C0093F83E30DBB2402B0AD17B68002283F805
:10436C003E207B6800221A637868FFF7C4FD30E0BA
:10437C007B68002283F83E207B6812221A637868DF
:10438C00FFF77FFD25E07B681B685A687B681B681C
:10439C0022F4E0625A607B681B681A697B685B6A6E
:1043AC00D2B21A707B685B6A5A1C7B685A627B6853
:1043BC005B8D9BB2013B9AB27B685A857B6820224D
:1043CC0083F83D207B68002283F83E207868FFF755
:1043DC009BFD00BF1037BD4680BD80B584B000AFDB
:1043EC0078607B68DB6AFB607B685B8D9BB2042B1F
:1043FC001BD17B681B685A687B681B6822F480623F
:10440C005A607B681B681A697B685B6AD2B21A7047
:10441C007B685B6A5A1C7B685A627B685B8D9BB2BB
:10442C00013B9AB27B685A85BDE07B685B8D9BB281
:10443C00032B29D17B681B685A687B681B6822F4A4
:10444C0080625A60FB68042B0AD0FB68022B07D0F1
:10445C007B681B681A687B681B6822F480621A6090
:10446C007B681B681A697B685B6AD2B21A707B68BE
:10447C005B6A5A1C7B685A627B685B8D9BB2013B02
:10448C009AB27B685A858EE07B685B8D9BB2022B5F
:10449C0076D1FB68012B02D0FB68102B08D17B680E
:1044AC001B681A687B681B6822F480621A6019E02A
:1044BC00FB68042B02D0FB68022B08D17B681B68BD
:1044CC001A687B681B6842F480621A600AE0FB6819
:1044DC00102B07D07B681B681A687B681B6842F43A
:1044EC0000721A607B681B681A697B685B6AD2B2BF
:1044FC001A707B685B6A5A1C7B685A627B685B8D9E
:10450C009BB2013B9AB27B685A857B681B681A691F
:10451C007B685B6AD2B21A707B685B6A5A1C7B68D8
:10452C005A627B685B8D9BB2013B9AB27B685A8561
:10453C007B681B685A687B681B6822F440725A605F
:10454C007B68202283F83D207B6893F83E30DBB2F9
:10455C00402B0AD17B68002283F83E207B68002226
:10456C001A637868FFF7C7FC1DE07B68002283F8AC
:10457C003E207B6812221A637868FFF782FC12E0F7
:10458C007B681B681A697B685B6AD2B21A707B689D
:10459C005B6A5A1C7B685A627B685B8D9BB2013BE1
:1045AC009AB27B685A8500BF1037BD4680BD80B477
:1045BC0083B000AF78607B6893F83E30DBB2402B61
:1045CC0017D17B681B6D002B09D17B685B6CDBB250
:1045DC001A467B681B6802F0FE021A6167E07B6872
:1045EC005B6CDBB243F00103DAB27B681B681A61C7
:1045FC005DE07B681B69B3F5804F33D17B6893F822
:10460C003D30DBB2212B09D17B685B6CDBB21A46E7
:10461C007B681B6802F0FE021A6108E07B685B6C29
:10462C00DBB243F00103DAB27B681B681A617B686A
:10463C005B6B002B04D07B685B6B9B6A002B08D1F7
:10464C007B689B6B002B32D07B689B6B9B6A002B2F
:10465C002DD07B681B685A687B681B6842F400622B
:10466C005A6024E07B681B6D002B0ED17B685B6C61
:10467C009BB2DB11DBB203F00603DBB263F00F037A
:10468C00DAB27B681B681A6111E07B681B6D012B29
:10469C000DD17B685B6C9BB2DB11DBB203F00603C4
:1046AC00DBB263F00E03DAB27B681B681A6100BFE1
:1046BC000C37BD4680BC704780B483B000AF7860C7
:1046CC007B685B6CDAB27B681B681A617B685B6B1E
:1046DC00002B04D07B685B6B9B6A002B08D17B683A
:1046EC009B6B002B0CD07B689B6B9B6A002B07D0C1
:1046FC007B681B685A687B681B6842F400625A60CE
:10470C0000BF0C37BD4680BC704780B491B000AF81
:10471C0078607B6893F83E3087F83F307B68DB6AC3
:10472C00BB637B681B6B7B637B6893F83D30DBB2B0
:10473C00222B40F074817B681B6D002B0FD197F8F6
:10474C003F30402B0BD100233B637B681B685B69BC
:10475C003B637B681B689B693B633B6B6BE17B68D2
:10476C001B6D002B1DD17B681B69B3F5404F18D115
:10477C000023FB627B681B685B69FB627B681B68C0
:10478C009B69FB62FB6A7B681B681A687B681B6809
:10479C0042F480721A607B681B6D5A1C7B681A6528
:1047AC0049E17B685B8D9BB2002B13D10023BB626C
:1047BC007B681B685B69BB627B681B689B69BB621F
:1047CC00BB6A7B681B681A687B681B6842F40072C2
:1047DC001A6020E17B685B8D9BB2012B40F08A80D4
:1047EC00BB6B13F5803F37D17B681B681A687B68FD
:1047FC001B6822F480621A607B681B685B6803F498
:10480C000063B3F5006F13D17B681B681A687B6873
:10481C001B6822F480621A6000237B627B681B6831
:10482C005B697B627B681B689B697B627B6AF2E0DD
:10483C0000233B627B681B685B693B627B681B687F
:10484C009B693B623B6A7B681B681A687B681B68C8
:10485C0042F400721A60DEE0BB6B082B2ED0BB6BEF
:10486C00202B2BD07B6B122B02D1BB6B012B25D1B8
:10487C00BB6B042B0ED0BB6B022B0BD0BB6B102B6A
:10488C0008D07B681B681A687B681B6822F48062FE
:10489C001A6007E07B681B681A687B681B6842F427
:1048AC0080621A600023FB617B681B685B69FB619B
:1048BC007B681B689B69FB61FB69ACE07B681B68D0
:1048CC001A687B681B6822F480621A600023BB6143
:1048DC007B681B685B69BB617B681B689B69BB6100
:1048EC00BB697B681B681A687B681B6842F40072A2
:1048FC001A6090E07B685B8D9BB2022B58D1BB6B2E
:10490C00042B21D0BB6B022B1ED0BB6B102B1BD0EE
:10491C007B681B681A687B681B6842F400621A602B
:10492C0000237B617B681B685B697B617B681B6810
:10493C009B697B617B697B681B681A687B681B6859
:10494C0022F480621A6012E07B681B681A687B682C
:10495C001B6842F480621A6000233B617B681B6811
:10496C005B693B617B681B689B693B613B697B684E
:10497C001B685B6803F40063B3F5006F4BD1BB6B32
:10498C0013F5803F0BD0BB6B012B08D0BB6B082BF6
:10499C0005D0BB6B102B02D0BB6B202B3BD17B68A3
:1049AC001B685A687B681B6842F480525A6032E07C
:1049BC007B681B681A687B681B6842F480621A600B
:1049CC007B681B685B6803F40063B3F5006F17D159
:1049DC00BB6B13F5803F0BD0BB6B012B08D0BB6BB3
:1049EC00082B05D0BB6B102B02D0BB6B202B07D137
:1049FC007B681B685A687B681B6842F480525A605B
:104A0C000023FB607B681B685B69FB607B681B6831
:104A1C009B69FB60FB687B6800221A650BE0002336
:104A2C00BB607B681B685B69BB607B681B689B69B0
:104A3C00BB60BB68FFE700BF4437BD4680BC704716
:104A4C0080B584B000AF78607B6893F83D30FB7321
:104A5C007B685B8D9BB2002B2BD07B685B6A1A78D2
:104A6C007B681B681A617B685B6A5A1C7B685A629C
:104A7C007B685B8D9BB2013B9AB27B685A857B68E5
:104A8C005B8D9BB2002B14D1FB7B292B11D17B6846
:104A9C001B685A687B681B6822F480625A607B68CA
:104AAC0021221A637B68282283F83D207868FFF75F
:104ABC00F1F900BF1037BD4680BD80B483B000AFA4
:104ACC0078607B685B8D9BB2002B11D07B685B6A36
:104ADC001A787B681B681A617B685B6A5A1C7B6856
:104AEC005A627B685B8D9BB2013B9AB27B685A859C
:104AFC0000BF0C37BD4680BC704780B584B000AF9A
:104B0C0078607B6893F83D30FB737B685B8D9BB260
:104B1C00002B2CD07B681B681A697B685B6AD2B24D
:104B2C001A707B685B6A5A1C7B685A627B685B8D67
:104B3C009BB2013B9AB27B685A857B685B8D9BB2BA
:104B4C00002B14D1FB7B2A2B11D17B681B685A6874
:104B5C007B681B6822F480625A607B6822221A638D
:104B6C007B68282283F83D207868FFF79CF900BF0A
:104B7C001037BD4680BD80B483B000AF78607B68D1
:104B8C005B8D9BB2002B12D07B681B681A697B680B
:104B9C005B6AD2B21A707B685B6A5A1C7B685A6279
:104BAC007B685B8D9BB2013B9AB27B685A8500BFD8
:104BBC000C37BD4680BC704780B584B000AF7860C0
:104BCC0039600023FB737B6893F83D30DBB203F054
:104BDC002803282B27D17B681B685A687B681B68C5
:104BEC0022F480625A603B689B0803F00103002B9F
:104BFC0001D10123FB733B68DB0903F00103002B9C
:104C0C0003D17B68DB68BB8102E07B689B69BB815D
:104C1C007B68002283F83C20BA89FB7B19467868B4
:104C2C00FFF74AF90EE00023BB607B681B685B69E9
:104C3C00BB607B681B689B69BB60BB687B680022A0
:104C4C0083F83C2000BF1037BD4680BD80B584B0D2
:104C5C0000AF78607B6893F83D30FB737B681B6812
:104C6C005A687B681B6822F4E0625A600023BB60C0
:104C7C007B681B685B69BB607B681B681A687B6818
:104C8C001B6842F001021A60BB687B681B681A68DB
:104C9C007B681B6822F480621A607B681B685B6807
:104CAC0003F40063B3F5006F72D1FB7B222B02D0AF
:104CBC00FB7B2A2B35D17B689B6B1B685B689AB29C
:104CCC007B685A857B685B8D9BB2002B05D07B681B
:104CDC001B6C43F004027B681A647B681B685A687F
:104CEC007B681B6822F400625A607B689B6B1846D9
:104CFC00FEF73CF80346012B49D07B689B6B694A55
:104D0C005A637B689B6B1846FDF7BAFF0346002B72
:104D1C003DD07B689B6B5B6B7A68926B10469847B7
:104D2C0035E07B685B6B1B685B689AB27B685A8565
:104D3C007B685B8D9BB2002B05D07B681B6C43F0B2
:104D4C0004027B681A647B681B685A687B681B6862
:104D5C0022F400625A607B685B6B1846FEF706F81B
:104D6C000346012B14D07B685B6B4E4A5A637B68FD
:104D7C005B6B1846FDF784FF0346002B08D07B685D
:104D8C005B6B5B6B7A68526B1046984700E000BF18
:104D9C007B685B8D9BB2002B3ED07B681B685B698C
:104DAC0003F00403042B12D17B681B681A697B681F
:104DBC005B6AD2B21A707B685B6A5A1C7B685A6257
:104DCC007B685B8D9BB2013B9AB27B685A857B6892
:104DDC001B685B6903F04003402B12D17B681B6896
:104DEC001A697B685B6AD2B21A707B685B6A5A1C60
:104DFC007B685A627B685B8D9BB2013B9AB27B6885
:104E0C005A857B685B8D9BB2002B05D07B681B6C35
:104E1C0043F004027B681A647B681B6C002B03D084
:104E2C00786800F0B3F839E0FB7B2A2B09D17B685A
:104E3C0000221A637B68282283F83D207868FFF7EC
:104E4C0032F87B6893F83D30DBB2282B11D17B68AC
:104E5C00154ADA627B6800221A637B68202283F889
:104E6C003D207B68002283F83E207868FFF731F8FC
:104E7C0014E07B681B6B222B02D0FB7B222B0DD109
:104E8C007B6800221A637B68202283F83D207B68B4
:104E9C00002283F83E207868FFF705F800BF103732
:104EAC00BD4680BD9D5400080000FFFF80B584B056
:104EBC0000AF78607B6893F83D30FB737B68DB6AEE
:104ECC00BB60BB68082B02D0BB68202B29D1FB7BB5
:104EDC00282B26D17B682C4ADA627B681B685A68BF
:104EEC007B681B6822F4E0625A607B681B686FF475
:104EFC0080625A617B681B681A687B681B6822F4A5
:104F0C0080621A607B6800221A637B68202283F817
:104F1C003D207B68002283F83E207868FEF7D9FF9D
:104F2C002EE0FB7B212B26D17B68174ADA627B684B
:104F3C0021221A637B68202283F83D207B680022A3
:104F4C0083F83E207B681B685A687B681B6822F4D8
:104F5C00E0625A607B681B686FF480625A617B6800
:104F6C001B681A687B681B6822F480621A60786878
:104F7C00FEF790FF04E07B681B686FF480625A6157
:104F8C0000BF1037BD4680BD0000FFFF80B584B068
:104F9C0000AF78607B6893F83D30FB737B6893F8C7
:104FAC003E30BB73BB7B102B02D0BB7B402B0AD19A
:104FBC00FB7B222B07D17B681B681A687B681B68FC
:104FCC0022F400621A60FB7B03F02803282B07D124
:104FDC007B6800221A637B68282283F83D2015E049
:104FEC007B681B685B6803F40063B3F5006F0AD041
:104FFC00FB7B602B07D07B68202283F83D207B68ED
:10500C00002283F83E207B6800221A637B681B68B1
:10501C005B6803F40063B3F5006F61D17B681B68B8
:10502C005A687B681B6822F400625A607B685B6B71
:10503C0093F82130012B20D07B685B6B6A4A5A6352
:10504C007B685B6B1846FDF71BFE0346002B00F0DC
:10505C0089807B681B681A687B681B6822F00102D8
:10506C001A607B68202283F83D207B685B6B5B6B4E
:10507C007A68526B1046984774E07B689B6B5A4A6F
:10508C005A637B689B6B1846FDF7FAFD0346002BB1
:10509C0068D07B681B685B6903F04003402B0BD125
:1050AC007B681B681A697B685B6AD2B21A707B6872
:1050BC005B6A5A1C7B685A627B681B681A687B683F
:1050CC001B6822F001021A607B68202283F83D20C5
:1050DC007B689B6B5B6B7A68926B1046984741E0E0
:1050EC007B6893F83D30DBB2602B25D17B682022A6
:1050FC0083F83D207B6800221A647B681B685B691F
:10510C0003F04003402B0BD17B681B681A697B684A
:10511C005B6AD2B21A707B685B6A5A1C7B685A62F3
:10512C007B681B681A687B681B6822F001021A6096
:10513C007868FEF7F2FE15E07B681B685B6903F08C
:10514C004003402B0BD17B681B681A697B685B6A38
:10515C00D2B21A707B685B6A5A1C7B685A62786898
:10516C00FEF7D2FE7B681B6CBB60BB6803F00103CF
:10517C00002B0ED1BB6803F00203002B09D1BB68D6
:10518C0003F00403002B04D1BB6803F00803002BCD
:10519C0007D07B681B685A687B681B6822F4E06246
:1051AC005A607B6893F83D30FB737B681B6C03F093
:1051BC000403042B13D1FB7B282B10D17B680B4AE7
:1051CC00DA627B6800221A637B68202283F83D2018
:1051DC007B68002283F83E207868FEF77AFE00BFD9
:1051EC001037BD4680BD00BF9D5400080000FFFF76
:1051FC0080B588B002AFF8607A603B600B467B816B
:10520C00FB68DB6A7B617B69082B06D07B69012B11
:10521C0003D07B6913F5803F08D1FB681B681A68C3
:10522C00FB681B6842F480721A600BE0FB681B6B16
:10523C00122B07D1FB681B681A68FB681B6842F4C9
:10524C0080721A603B6800937B6800224FF001115A
:10525C00F86800F0C5F90346002B0DD0FB681B68FD
:10526C001B6803F48073B3F5807F03D1FB684FF4A4
:10527C0000721A64032335E0FB681B69B3F5804F99
:10528C0008D17B89DBB21A46FB681B6802F0FE0270
:10529C001A611BE07B89DB11DBB203F00603DBB286
:1052AC0063F00F03DAB2FB681B681A613B687A681B
:1052BC000E49F86800F0EBF90346002B01D00123EE
:1052CC0010E07B89DAB2FB681B681A613B687A686C
:1052DC000749F86800F0DBF90346002B01D00123E5
:1052EC0000E0002318461837BD4680BD08000100B9
:1052FC000200010080B588B002AFF8607A603B60B4
:10530C000B467B81FB68DB6A7B61FB681B681A6858
:10531C00FB681B6842F480621A607B69082B06D01C
:10532C007B69012B03D07B6913F5803F08D1FB68A7
:10533C001B681A68FB681B6842F480721A600BE0E9
:10534C00FB681B6B112B07D1FB681B681A68FB6889
:10535C001B6842F480721A603B6800937B680022E1
:10536C004FF00111F86800F03BF90346002B0DD00B
:10537C00FB681B681B6803F48073B3F5807F03D153
:10538C00FB684FF400721A64032379E0FB681B6915
:10539C00B3F5804F08D17B89DBB243F00103DAB25D
:1053AC00FB681B681A615FE07B89DB11DBB203F0E1
:1053BC000603DBB263F00F03DAB2FB681B681A61F9
:1053CC003B687A683049F86800F061F90346002BB5
:1053DC0001D0012354E07B89DAB2FB681B681A61A7
:1053EC003B687A682949F86800F051F90346002BAC
:1053FC0001D0012344E000233B61FB681B685B691F
:10540C003B61FB681B689B693B613B69FB681B68E4
:10541C001A68FB681B6842F480721A603B68009340
:10542C007B6800224FF00111F86800F0D9F80346B0
:10543C00002B0DD0FB681B681B6803F48073B3F55D
:10544C00807F03D1FB684FF400721A64032317E0CA
:10545C007B89DB11DBB203F00603DBB263F00E03D6
:10546C00DAB2FB681B681A613B687A680749F8680E
:10547C0000F00DF90346002B01D0012300E00023BE
:10548C0018461837BD4680BD080001000200010017
:10549C0080B586B000AF78600023FB607B685B6AE8
:1054AC007B617B6993F83D30FB744B4B1B68DB08CD
:1054BC004A4AA2FB03231A0A13469B001344DA0040
:1054CC00D31AFB60FB68002B06D17B691B6C43F085
:1054DC0020027B691A640AE0FB68013BFB607B6974
:1054EC001B681B6803F40073B3F5007FEAD07B697B
:1054FC005B6B002B03D07B695B6B00229A627B6930
:10550C009B6B002B03D07B699B6B00229A627B699F
:10551C001B681A687B691B6822F480621A607B69BD
:10552C0000225A857B695B6B002B03D07B695B6B1C
:10553C0000225A637B699B6B002B03D07B699B6BAE
:10554C0000225A637B691B681A687B691B6822F00E
:10555C0001021A607B6993F83D30DBB2602B0ED1EF
:10556C007B69202283F83D207B69002283F83E2052
:10557C007B6900221A647869FEF7CFFC27E0FB7C7C
:10558C0003F02803282B17D17B691B681A687B69E9
:10559C001B6842F001021A607B691B681A687B6900
:1055AC001B6842F480621A607B6900221A637B6973
:1055BC00282283F83D2007E07B69202283F83D20D8
:1055CC007B69002283F83E207869FEF79DFC00BFC2
:1055DC001837BD4680BD00BF4C00002089B5F814BB
:1055EC0080B584B000AFF860B9603B601346FB71C6
:1055FC0025E03B68B3F1FF3F21D0FDF705FA0246E9
:10560C00BB69D31A3A689A4202D33B68002B16D175
:10561C00FB6800221A63FB68202283F83D20FB689C
:10562C00002283F83E20FB681B6C43F02002FB68D1
:10563C001A64FB68002283F83C20012323E0BB683A
:10564C001B0CDBB2012B0DD1FB681B685B69DA43C9
:10565C00BB6813409BB2002B0CBF01230023DBB2B1
:10566C001A460CE0FB681B689B69DA43BB68134065
:10567C009BB2002B0CBF01230023DBB21A46FB7933
:10568C009A42B6D0002318461037BD4680BD80B56F
:10569C0084B000AFF860B9607A603B6051E0FB68A1
:1056AC001B685B6903F48063B3F5806F23D1FB68DF
:1056BC001B681A68FB681B6842F400721A60FB686E
:1056CC001B686FF480625A61FB6800221A63FB68E6
:1056DC00202283F83D20FB68002283F83E20FB68E3
:1056EC001B6C43F00402FB681A64FB68002283F80D
:1056FC003C20012346E07B68B3F1FF3F21D0FDF74E
:10570C0083F902463B68D31A7A689A4202D37B68C3
:10571C00002B16D1FB6800221A63FB68202283F849
:10572C003D20FB68002283F83E20FB681B6C43F095
:10573C002002FB681A64FB68002283F83C200123DA
:10574C0020E0BB681B0CDBB2012B0CD1FB681B6887
:10575C005B69DA43BB6813409BB2002B14BF012377
:10576C000023DBB20BE0FB681B689B69DA43BB6868
:10577C0013409BB2002B14BF01230023DBB2002B80
:10578C008DD1002318461037BD4680BD80B584B03E
:10579C0000AFF860B9607A602DE0F86800F000F9AD
:1057AC000346002B01D001232DE0BB68B3F1FF3F72
:1057BC0021D0FDF729F902467B68D31ABA689A42C0
:1057CC0002D3BB68002B16D1FB6800221A63FB685E
:1057DC00202283F83D20FB68002283F83E20FB68E2
:1057EC001B6C43F02002FB681A64FB68002283F8F0
:1057FC003C20012307E0FB681B685B6903F0800316
:10580C00802BCAD1002318461037BD4680BD80B509
:10581C0084B000AFF860B9607A602DE0F86800F0F1
:10582C00BFF80346002B01D001232DE0BB68B3F178
:10583C00FF3F21D0FDF7E8F802467B68D31ABA681F
:10584C009A4202D3BB68002B16D1FB6800221A6364
:10585C00FB68202283F83D20FB68002283F83E2061
:10586C00FB681B6C43F02002FB681A64FB68002287
:10587C0083F83C20012307E0FB681B685B6903F09D
:10588C000403042BCAD1002318461037BD4680BD33
:10589C0080B485B000AF78600023FB60134B1B68AD
:1058AC00DB08134AA2FB03231A0A13469B0013447A
:1058BC00FB60FB68013BFB60FB68002B07D17B683E
:1058CC001B6C43F020027B681A64012308E07B68A0
:1058DC001B681B6803F40073B3F5007FE9D0002349
:1058EC0018461437BD4680BC704700BF4C000020E2
:1058FC0089B5F81480B584B000AFF860B9607A60EF
:10590C0042E0FB681B685B6903F01003102B19D194
:10591C00FB681B686FF010025A61FB6800221A6367
:10592C00FB68202283F83D20FB68002283F83E2090
:10593C00FB681A6CFB681A64FB68002283F83C2035
:10594C00012329E0FDF760F802467B68D31ABA6898
:10595C009A4202D3BB68002B16D1FB6800221A6353
:10596C00FB68202283F83D20FB68002283F83E2050
:10597C00FB681B6C43F02002FB681A64FB68002276
:10598C0083F83C20012307E0FB681B685B6903F08C
:10599C004003402BB5D1002318461037BD4680BDBF
:1059AC0080B483B000AF78607B681B685B6903F4DC
:1059BC008063B3F5806F1BD17B681B686FF48062CA
:1059CC005A617B6800221A637B68202283F83D2091
:1059DC007B68002283F83E207B681B6C43F004023A
:1059EC007B681A647B68002283F83C20012300E06A
:1059FC00002318460C37BD4680BC704780B483B07A
:105A0C0000AF78607B68DB6AB3F52A0F03D17B6843
:105A1C000122DA6207E07B68DB6AB3F12A4F02D11C
:105A2C007B680822DA6200BF0C37BD4680BC704729
:105A3C0080B586B000AF78607B68002B01D1012364
:105A4C0072E27B681B6803F00103002B00F0878077
:105A5C00924B5B6803F00C03042B0CD08F4B5B68F0
:105A6C0003F00C03082B12D18C4B5B6803F48033CE
:105A7C00B3F5803F0BD1894B1B6803F40033002B2B
:105A8C006CD07B685B68002B68D101234CE27B688F
:105A9C005B68B3F5803F06D1804B1B687F4A43F4AB
:105AAC00803313602EE07B685B68002B0CD17B4B42
:105ABC001B687A4A23F480331360784B1B68774A4F
:105ACC0023F4802313601DE07B685B68B3F5A02F83
